:060000000A128A11122809
:10000800FE00030EF3000408F4000A08F50083124A
:1000180003137F08F6000A128A1161280A128A114E
:100028007A2846346934723473347434203443344F
:100038006F346E34743472346F346C346C346534A9
:100048007234203469347334203477346F34723422
:100058006B3469346E3467340D3400340034003442
:1000680000340034003400340034003400340034E8
:1000780000340034003400340034003400340034D8
:10008800003400340034F2005728720884008313C7
:1000980000080A128A11BB200A128A110130F100E5
:1000A8007108F20757287208840083138008031D1B
:1000B8005E285F284928602808008B1C642865286A
:1000C8006C2820300A128A1147200A128A116C28DB
:1000D8008B10760883120313FF0075088A007408D2
:1000E8008400730E8300FE0E7E0E090083135230C7
:1000F800FD000030FE001530FF00203084000A1299
:100108008A1190200A128A1183010A128A119D28E5
:100118007E088A007F0882008C200A128A118000DB
:10012800840A04087D0603190034FF0A0319FE0A2D
:1001380090280A128A11AE200A128A118316031314
:10014800061481018B170B170B16AA28AA280A1266
:100158008A11122883160313071387171F30990073
:1001680098168312031398170C128C120800F000CB
:100178007008831203139900C1280C1EC428C528CF
:06018800C1280C12080062
:02400E007AFF37
:00000001FF
