:100000000A128A11332E00308A000408840A8207FB
:10001000003401340034103400340034013400342E
:1000200010344434613474346134203466347234AE
:100030006F346D3420346D3461347334743465340A
:1000400072342034253478340D3400343034313473
:100050003234333434343534363437343834393454
:0E0060006134623463346434653466340034D1
:100B0E00F00070088312031399008D2D0C1E902D8A
:100B1E00912D8D2D0C120800F00070088312031316
:100B2E009300992D8C1D9C2D9D2D992D8C111308A4
:100B3E00A02D08007E088A007F088200A1250A12D7
:100B4E008A118000840A04087D0603190034FF0A06
:100B5E000319FE0AA52D831203139010101690167A
:100B6E00FA308F00DB308E001014BD2D0C1CC02D02
:100B7E00C12DBD2D0C10101408008316031307137E
:100B8E00871798018312031398011F3083160313DE
:100B9E00990098168312031398170C128C120800E2
:100BAE00503449344334203469346E3469347434E7
:100BBE00693461346C3469347A34653464342E3477
:100BCE002E342E340D340034831603139401143056
:100BDE00831203139400831603138C1183120313D1
:100BEE008C11941683160313871507168712851614
:100BFE00080049346E3469347434693461346C34A9
:100C0E0069347A3469346E3467342034643465342C
:100C1E0076346934633465340D340034F200292E91
:100C2E0072088400831300080A128A1187250A129B
:100C3E008A110A128A11B2250A128A110130F100A4
:100C4E007108F2077208840083138008031D302E8A
:100C5E00312E172E322E08008313B430FD000530CE
:100C6E00FE00D730FF00A03084000A128A11A5259D
:100C7E000A128A116330FD000630FE000030FF00BC
:100C8E004E3084000A128A11A5250A128A11830198
:100C9E000A128A11A02EF501F601710870040319CB
:100CAE00592E5A2E982EF7010314F70D6A2E013085
:100CBE000310F00DF10DFF3E031D5F2E0130F40009
:100CCE007408F7076A2EF11F6D2E6E2E5E2E702E93
:100CDE00702E01300310F50DF60DFF3E031D712E23
:100CEE0071087302031D7D2E70087202031C802E84
:100CFE00812E892E7008F2027108031CF303F30291
:100D0E007514892E01300310F10CF00CFF3E031DFB
:100D1E008A2E0130F702031D952E962E702E982ED8
:100D2E00982E7608F101F1077508F001F0079F2E55
:100D3E000800303083120313A9002908CD000A12CF
:100D4E008A11C4250A128A114E300A128A111526EA
:100D5E000A128A110A128A11EB250A128A110A1234
:100D6E008A11B2250A128A1183120313CC010A309A
:100D7E004C02031CC32EC42EC62E2B2F2B2F4D0818
:100D8E000A128A1193250A128A1183120313A900DB
:100D9E002908CA000930A9002908F8004A08AA0043
:100DAE00AB012A08F9002B08FA002C300A128A111E
:100DBE002F270A128A1183120313C9012C300A122B
:100DCE008A1115260A128A11831203134D080A126C
:100DDE008A1187250A128A110A128A11B2250A125D
:100DEE008A110D300A128A1187250A128A1183126E
:100DFE000313CB0164304B02031C062F072F092F60
:100E0E001B2F1B2F0A128A11B2250A128A110130CA
:100E1E0083120313A9002908CB0764304B02031C6D
:100E2E00192F1A2F092F1B2F0130A9002908CD07C2
:100E3E000130A9002908CC070A304C02031C282FC8
:100E4E00292FC62E2B2F2B2F2B2F0A128A1100285B
:100E5E0083120313A7007930FB007B08A100E62F55
:100E6E002808253A03193C2F3D2F492F2808FB004F
:100E7E00270884007B08831380000130FB007B0869
:100E8E00A707E62FA0014F2FFA2F612FE62F612F14
:100E9E000130F807FF30780784000A128A11032008
:100EAE000A128A11A800003A0319FA2F783A031988
:100EBE00612FE62F210884000008A200840A000892
:100ECE00A3000230FB007B08A107A8010314A80DA4
:100EDE002808043A031D742F752F772F9F2F9F2FED
:100EEE002808FB007B07013E84000A128A110320AA
:100EFE000A128A11FC000A128A1103200A128A11A0
:100F0E00FD007D082302031D8E2F7C08220203188C
:100F1E00912F922F942F9F2F9F2F0130FB007B0834
:100F2E00A8072808043A031D9D2F9E2F772F9F2F69
:100F3E002808FB007B08A600DA2F2608FB007B079B
:100F4E00013E84000A128A1103200A128A11F0004F
:100F5E000A128A1103200A128A11F1002308F301E2
:100F6E00F3072208F201F2070A128A1152260A1218
:100F7E008A1170080F391E3E84000A128A1103204E
:100F8E000A128A11FC007C0883120313A800280899
:100F9E00FB00270884007B08831380000130FB00D0
:100FAE007B08A707DA2FFF30FB007B08A607260871
:100FBE00FF3A031DE32FE42FA42FE62FE62F013077
:100FCE00F807FF30780784000A128A1103200A12EC
:100FDE008A11FB007B08A800A808031DF72FF82F25
:100FEE00372FFA2FFA2F2708840083138001FF2F43
:020FFE000800E9
:02400E007AFF37
:00000001FF
