:060000000A128A11F82D1E
:100B2C00013400345334653463346F346E346434BC
:100B3C0009340034F0007008831203139900A62DB9
:100B4C000C1EA92DAA2DA62D0C12080049342034F8
:100B5C0061346D34203441346C346934763465340A
:100B6C0020343D34203400347E088A007F08820013
:100B7C00BA250A128A118000840A04087D0603191A
:100B8C000034FF0A0319FE0ABE2D83160313071344
:100B9C00871798018312031398011F3083160313D0
:100BAC00990098168312031398170C128C120800D4
:100BBC00F200EE2D72088400831300080A128A11C9
:100BCC00A0250A128A110130F1007108F207EE2DEE
:100BDC007208840083138008031DF52DF62DE02D7B
:100BEC00F72D08008313AE30FD000530FE00AC304D
:100BFC00FF00A03084000A128A11BE250A128A1145
:100C0C006A30FD000530FE009830FF006230840031
:100C1C000A128A11BE250A128A110A128A11962505
:100C2C000A128A11FC000A128A1197250A128A11DB
:100C3C00FD0083010A128A11232E0A128A11CB2578
:100C4C000A128A118316031306102C2E0A128A110B
:100C5C0053260A128A11A0300A128A11DE250A12B2
:100C6C008A117D08FA01FA077C08F901F9070A12C2
:100C7C008A1179270A128A1162300A128A11DE252A
:100C8C000A128A110130FC070318FD0A0030FD0717
:100C9C002C2E2C2E0A128A110028F001F101710859
:100CAC00803AFF0080307F02031D5E2E0A307002F6
:100CBC00031C612E622E642E9E2E9E2E8312031315
:100CCC009010901610160B308F00DB308E00101425
:100CDC006F2E0C1C722E732E6F2E0C107108803A16
:100CEC00FF0080307F02031D7D2E05307002031C37
:100CFC00802E812E862E01308312031386008A2EBD
:100D0C008312031386018A2E0130F0070318F10AAF
:100D1C000030F1077108803AFF0080307F02031D1C
:100D2C00992E0A307002031C9C2E9D2E642E9E2E32
:100D3C000800F601F31FA32EA42EAD2EF209F30921
:100D4C00F20A0319F30AF6010314F60DAD2EF11F86
:100D5C00B02EB12EB72EF009F109F00A0319F10AE1
:100D6C00B72E710870040319BC2EBD2EF32EF5019D
:100D7C000314F50DCD2E01300310F00DF10DFF3ED7
:100D8C00031DC22E0130F4007408F507CD2EF11F9F
:100D9C00D02ED12EC12ED32ED32E71087302031D4B
:100DAC00D92E70087202031CDC2EDD2EE42E700886
:100DBC00F2027108031CF303F302E42E013003105A
:100DCC00F10CF00CFF3E031DE52E0130F502031D66
:100DDC00F02EF12ED32EF32EF32E7608031DF72EC4
:100DEC00FD2EF209F309F20A0319F30AFD2E73081A
:100DFC00F101F1077208F001F007042F0800F60169
:100E0C00F11F092F0A2F132FF009F109F00A03190A
:100E1C00F10AF6010314F60D132FF31F162F172FDB
:100E2C00212FF209F309F20A0319F30A0130F40035
:100E3C007408F606212FF701F801710870040319E4
:100E4C00282F292F672FF5010314F50D392F0130A9
:100E5C000310F00DF10DFF3E031D2E2F0130F40099
:100E6C007408F507392FF11F3C2F3D2F2D2F3F2FE5
:100E7C003F2F01300310F70DF80DFF3E031D402FDF
:100E8C0071087302031D4C2F70087202031C4F2F44
:100E9C00502F582F7008F2027108031CF303F30251
:100EAC007714582F01300310F10CF00CFF3E031D8A
:100EBC00592F0130F502031D642F652F3F2F672F2B
:100ECC00672F7608031D6B2F712FF709F809F70AA6
:100EDC000319F80A712F7808F101F1077708F0016E
:100EEC00F007782F080083120313E001E1017A0860
:100EFC00DF01DF077908DE01DE07C42F0A30F000BE
:100F0C000030F1005F08F301F3075E08F201F2070D
:100F1C000A128A119F260A128A117108831203136E
:100F2C00DD01DD077008DC01DC076008FB007B07D6
:100F3C00203E84005C0883138000840A5D088000D6
:100F4C000A30F0000030F1005F08F301F3075E088F
:100F5C00F201F2070A128A1105270A128A11710886
:100F6C0083120313DF01DF077008DE01DE07013097
:100F7C00E0070318E10A0030E107C42F5F085E04A4
:100F8C00031DC92FCA2F842FCB2F6008FF3EE00012
:100F9C0061080318013EFF3EE100FF306106031DAE
:100FAC00D92FFF306006031DDC2FDD2FDF2FFF2F25
:100FBC00FF2F6008FB007B07203E84008313000892
:100FCC00303E0A128A11A0250A128A11FF308312B0
:100FDC000313E0070318E10AFF30E107FF30610655
:100FEC00031DFA2FFF306006031DFD2FFE2FDF2F90
:040FFC00FF2F0800BB
:02400E007AFF37
:00000001FF
