:100000000A128A11772D00308A000408840A8207B8
:10001000003401340034103400340034013400342E
:1000200010343034313432343334343435343634BB
:100030003734383439346134623463346434653489
:1000400066340034253478340D3420342534783443
:040050000D34003437
:1009D4000A128A112A250A128A1183160313111482
:1009E40008000A128A112A250A128A11831603138F
:1009F400111508000A128A112A250A128A11700890
:100A04008312031393000800283083120313940005
:100A14008316031391013130930094010800F00010
:100A24007008831203139900172D0C1E1A2D1B2D09
:100A3400172D0C12080083160313071387171F3092
:100A4400990098168312031398170C128C1208003D
:100A54002C2D2C2D8316031311081F39031D332D40
:100A6400342D2C2D1419372D382D2C2D392D08000B
:100A74007E088A007F0882003A250A128A118000C3
:100A8400840A04087D0603190034FF0A0319FE0AC8
:100A94003E2D831203139010101690163C308F00D5
:100AA400B0308E001014562D0C1C592D5A2D562D75
:100AB4000C1010100800F2006D2D720884008313CE
:100AC40000080A128A1111250A128A110130F10054
:100AD4007108F2076D2D7208840083138008031DCA
:100AE400742D752D5F2D762D08008317C230FD00FF
:100AF4000530FE00C730FF00903084000A128A11CE
:100B04003E250A128A1183135230FD000530FE007F
:100B1400F930FF00203084000A128A113E250A129F
:100B24008A1183010A128A11792E0A128A112A253E
:100B34000A128A118316031391150A128A112A259F
:100B44000A128A11831203131308F200F3017208C4
:100B5400F4007308F5000A128A112A250A128A1170
:100B6400710870040319B72DBB2D83160313911656
:100B7400BE2D83160313911211167508F101F107A6
:100B84007408F001F007C62D08006834693469342C
:100B94006934693469346934693469346934693469
:100BA4000D34003400340034003400340034003494
:100BB4000034003400340034003400340034003491
:100BC4000034003400340034003400340034003481
:100BD4000034003400340034003400340034003471
:100BE400003400340034003400340034003446341B
:100BF4006934723473347434203443346F346E344F
:100C0400743472346F346C346C346534723420341C
:100C140069347334203477346F3472346B34693408
:100C24006E3467340D34003400340034003400343E
:100C34000034003400340034003400340034003410
:100C44000034003400340034003400340034003400
:100C54000034F501F601710870040319322E332EA5
:100C6400712EF7010314F70D432E01300310F00D1C
:100C7400F10DFF3E031D382E0130F4007408F70710
:100C8400432EF11F462E472E372E492E492E013072
:100C94000310F50DF60DFF3E031D4A2E7108730275
:100CA400031D562E70087202031C592E5A2E622EF2
:100CB4007008F2027108031CF303F3027514622E28
:100CC40001300310F10CF00CFF3E031D632E0130C4
:100CD400F702031D6E2E6F2E492E712E712E76088B
:100CE400F101F1077508F001F007782E08000A12E7
:100CF4008A111D250A128A110A128A1106250A125E
:100D04008A110A128A114B250A128A110A128A11AF
:100D14002A250A128A110A128A11EA240A128A114D
:100D2400D030F0000030F1000A128A11FC240A12BB
:100D34008A110930F0000030F1000A128A11FC24F3
:100D44000A128A110030F0000030F1000A128A11F0
:100D5400FC240A128A110A128A11F3240A128A1133
:100D64000A128A112A250A128A110A128A11EA24FD
:100D74000A128A11D130F0000030F1000A128A11EF
:100D8400FC240A128A110A128A112A250A128A11CB
:100D940083160313E601E7016708803AFF008030F9
:100DA4007F02031DD72E02306602031CDA2EDB2ECF
:100DB400DD2E072F072F0130F0000030F1000A125A
:100DC4008A1197250A128A11831603136608FD00F7
:100DD4007D07D23E8400700883138000840A710862
:100DE40080000130E6070318E70A0030E7076708C8
:100DF400803AFF0080307F02031D022F023066021A
:100E0400031C052F062FDD2E072F1A30FD007D0849
:100E1400F800831603135308FA01FA075208F9017C
:100E2400F9075508FC01FC075408FB01FB07A03037
:100E34000A128A112F270A128A11A0300A128A1163
:100E44005D250A128A110A128A11F3240A128A11E0
:100E54002B2F2B2F0A128A11002883120313DC0074
:100E64007930D2005208D600E62F5D08253A0319DE
:100E74003C2F3D2F492F5D08D2005C0884005208A6
:100E8400831380000130D2005208DC07E62FD5011D
:100E94004F2FFA2F612FE62F612F0130F807FF3013
:100EA400780784000A128A1103200A128A11DD00CD
:100EB400003A0319FA2F783A0319612FE62F5608DE
:100EC40084000008D700840A0008D8000230D20049
:100ED4005208D607DD010314DD0D5D08043A031D35
:100EE400742F752F772F9F2F9F2F5D08D2005207E5
:100EF400013E84000A128A1103200A128A11D300C7
:100F04000A128A1103200A128A11D40054085802C2
:100F1400031D8E2F530857020318912F922F942FDD
:100F24009F2F9F2F0130D2005208DD075D08043A3D
:100F3400031D9D2F9E2F772F9F2F5D08D2005208EF
:100F4400DB00DA2F5B08D2005207013E84000A124C
:100F54008A1103200A128A11F0000A128A1103204E
:100F64000A128A11F1005808F301F3075708F20135
:100F7400F2070A128A112B260A128A1170080F39F5
:100F8400093E84000A128A1103200A128A1183126C
:100F94000313D3005308DD005D08D2005C0884000D
:100FA4005208831380000130D2005208DC07DA2F84
:100FB400FF30D2005208DB075B08FF3A031DE32F22
:100FC400E42FA42FE62FE62F0130F807FF3078072F
:100FD40084000A128A1103200A128A11D2005208CC
:100FE400DD00DD08031DF72FF82F372FFA2FFA2F16
:0C0FF4005C08840083138001FF2F0800BC
:02400E007AFF37
:00000001FF
