:060000000A128A114E2FC6
:100E9C0083010A128A11A12FF00083120313071089
:100EAC0087100715700888000A128A1163270A1226
:100EBC008A11831203130711080083120313901075
:100ECC00101690163C308F00B0308E0010146E2F20
:100EDC000C1C712F722F6E2F0C1010100800831623
:100EEC0003130713871798018312031398011F30FC
:100EFC0083160313990098168312031398170C1278
:100F0C008C120800F00070088312031399008E2FC6
:100F1C000C1E912F922F8E2F0C1207148710071571
:100F2C00700888000A128A1163270A128A11831228
:100F3C000313071108008316031386018801870128
:100F4C0038300A128A1152270A128A1101300A12F9
:100F5C008A1152270A128A1102300A128A11522758
:100F6C000A128A110F300A128A1152270A128A1198
:100F7C0006300A128A1152270A128A1180300A127C
:100F8C008A1152270A128A110A128A1175270A121B
:100F9C008A1161300A128A1188270A128A110A12E0
:100FAC008A1163270A128A1162300A128A11882761
:100FBC000A128A110A128A1163270A128A116330E3
:100FCC000A128A1188270A128A110A128A116327B7
:100FDC000A128A1164300A128A1188270A128A119D
:100FEC000A128A1163270A128A11FC2FFC2F0A128B
:040FFC008A1100282E
:02400E007AFF37
:00000001FF
