:10000000A001A1010730B700EC30B6002230840017
:1000100036300B20AA2FF00017208000840A040835
:100020007006031D0C28003483120313B600B71B9F
:100030002228371B2A2837088A003608B60A0319EF
:10004000B70A82008313371883173608B60A84006C
:04005000000808009C
:100F5400CB272230DB27BD27AE2F83018C1EAF2F7A
:100F64008C121A0808008301A100210899000C1EA4
:100F7400B92F0C1208008301901010169016FA3045
:100F84008F00B0308E0010140C1CC62F0C101010E3
:100F94000800831603130713871798018312980117
:100FA4001F30831699009816831298170C128C120E
:100FB40008008301A000E52F2008840083130008A3
:100FC400B527BD27A00A20088400831380080319CD
:100FD4000800DE2F503449344334203469346E34ED
:100FE40069347434693461346C3469347A34653402
:0C0FF40064342E342E342E340A340034C1
:02400E007A3FF7
:00000001FF
