:060000000A128A115C2EB9
:100BF000FC346034DA34F2346634B634BE34E03473
:100C0000FE34F6347E088A007F08820002260A122B
:100C10008A118000840A04087D0603190034FF0A43
:100C20000319FE0A062E8312031388150811881073
:100C300008107408203E84008313000886000A12FE
:100C40008A117C260A128A110800831203130815E0
:100C50008811881008107208203E84008313000851
:100C600086000A128A117C260A128A110800831251
:100C7000031308148811081188102A08203E8400E4
:100C80008313000886000A128A117C260A128A1130
:100C900008008312031388148811081108107008C3
:100CA000203E840083130008013E86000A128A1148
:100CB0007C260A128A110800F001F101F201F30109
:100CC000F401F501F601F701F801F901FA01FB0160
:100CD000AC01AD0183132A30FD000530FE00F83071
:100CE000FF00203084000A128A1106260A128A1197
:100CF00083010A128A11092FFA01FB017B08803A4D
:100D0000FF0083307F02031D872EE8307A02031C28
:100D10008A2E8B2E8D2EA12EA12E0130FA070318BC
:100D2000FB0A0030FB077B08803AFF0083307F021C
:100D3000031D9C2EE8307A02031C9F2EA02E8D2EC0
:100D4000A12E0800F801F9017908803AFF008030EF
:100D50007F02031DAD2E0A307802031CB02EB12E87
:100D6000B32E082F082F831203139010101690161D
:100D70000B308F00DC308E001014ED2E7508FD0155
:100D8000FD077408FC01FC070A128A1113260A12D7
:100D90008A117308FD01FD077208FC01FC070A12A5
:100DA0008A1125260A128A117108FD01FD077008B3
:100DB000FC01FC070A128A1149260A128A118312C1
:100DC00003132B08FD01FD072A08FC01FC070A128A
:100DD0008A1137260A128A11ED2E831203130C1C76
:100DE000F22EF32EBE2E0C100130F8070318F90A6C
:100DF0000030F9077908803AFF0080307F02031D38
:100E0000032F0A307802031C062F072FB32E082F5A
:100E10000800831603130810881008118811860132
:100E200083120313AA01AB012B08803AFF00803024
:100E30007F02031D1D2F06302A02031C202F212FA5
:100E4000232F102F102FF001F1017108803AFF00BD
:100E500080307F02031D2E2F0A307002031C312FB9
:100E6000322F342FE52FE52FF601F7017708803A6E
:100E7000FF0080307F02031D3F2F06307602031CE7
:100E8000422F432F452FD12FD12F83120313AC01B3
:100E9000AD012D08803AFF0080307F02031D522FE4
:100EA0000A302C02031C552F562F582FBD2FBD2F53
:100EB000F201F3017308803AFF0080307F02031DC6
:100EC000632F06307202031C662F672F692FA72F2E
:100ED000A72FF401F5017508803AFF0080307F02EA
:100EE000031D742F0A307402031C772F782F7A2F7A
:100EF000932F932F0A128A11A2260A128A11013007
:100F0000F4070318F50A0030F5077508803AFF006A
:100F100080307F02031D8E2F0A307402031C912F34
:100F2000922F7A2F932F0130F2070318F30A003023
:100F3000F3077308803AFF0080307F02031DA22F61
:100F400006307202031CA52FA62F692FA72F013090
:100F500083120313AC070318AD0A0030AD072D0848
:100F6000803AFF0080307F02031DB82F0A302C0228
:100F7000031CBB2FBC2F582FBD2F0130F6070318C1
:100F8000F70A0030F7077708803AFF0080307F02C9
:100F9000031DCC2F06307602031CCF2FD02F452FF8
:100FA000D12F0130F0070318F10A0030F107710862
:100FB000803AFF0080307F02031DE02F0A3070026C
:100FC000031CE32FE42F342FE52F0130831203138A
:100FD000AA070318AB0A0030AB072B08803AFF00C2
:100FE00080307F02031DF62F06302A02031CF92FE2
:100FF000FA2F232F102F102F102F0A128A110028DA
:02400E007A1F17
:00000001FF
