:060000000A128A11082F0C
:100DDA00FC346034DA34F2346634B634BE34E03487
:100DEA00FE34F6347E088A007F088200F7260A124B
:100DFA008A118000840A04087D0603190034FF0A58
:100E0A000319FE0AFB2EF001F101F201F301F401CC
:100E1A00F501F601F701F801F901FA01FB01831363
:100E2A002A30FD000630FE00ED30FF00203084003D
:100E3A000A128A11FB260A128A1183010A128A11DE
:100E4A00A52FF801F9017908803AFF0083307F0263
:100E5A00031D312FE8307802031C342F352F372F2A
:100E6A004B2F4B2F0130F8070318F90A0030F90706
:100E7A007908803AFF0083307F02031D462FE8304D
:100E8A007802031C492F4A2F372F4B2F0800F601EF
:100E9A00F7017708803AFF0080307F02031D572F41
:100EAA000A307602031C5A2F5B2F5D2FA42FA42F22
:100EBA00831203139010101690160B308F00DC303B
:100ECA008E001014892F08108810081188157408CC
:100EDA00203E84008313000886000A128A112627FE
:100EEA000A128A1183120313081088100815881130
:100EFA007C08203E84008313000886000A128A11A7
:100F0A0026270A128A11892F831203130C1C8E2F8B
:100F1A008F2F682F0C100130F6070318F70A0030DC
:100F2A00F7077708803AFF0080307F02031D9F2F62
:100F3A000A307602031CA22FA32F5D2FA42F0800CC
:100F4A008316031388110811881008108601FC0102
:100F5A00FD017D08803AFF0080307F02031DB72F14
:100F6A000A307C02031CBA2FBB2FBD2FAC2FAC2F2B
:100F7A00F401F5017508803AFF0080307F02031DF5
:100F8A00C82F0A307402031CCB2FCC2FCE2FE72F89
:100F9A00E72F0A128A114C270A128A110130F40724
:100FAA000318F50A0030F5077508803AFF0080300B
:100FBA007F02031DE22F0A307402031CE52FE62F7D
:100FCA00CE2FE72F0130FC070318FD0A0030FD077A
:100FDA007D08803AFF0080307F02031DF62F0A3019
:100FEA007C02031CF92FFA2FBD2FAC2FAC2FAC2F8C
:060FFA000A128A11002812
:02400E007A1F17
:00000001FF
