:060000000A128A11B02E65
:100C9800FC346034DA34F2346634B634BE34E034CA
:100CA800FE34F6347E088A007F08820056260A122F
:100CB8008A118000840A04087D0603190034FF0A9B
:100CC8000319FE0A5A2E8312031388150811881077
:100CD80008107408203E84008313000886000A1256
:100CE8008A11D0260A128A110800831203130815E4
:100CF8008811881008107208203E840083130008A9
:100D080086000A128A11D0260A128A110800831254
:100D1800031308148811081188107A08203E8400EB
:100D28008313000886000A128A11D0260A128A1133
:100D3800080083120313881488110811081070081A
:100D4800203E840083130008013E86000A128A119F
:100D5800D0260A128A110800F001F101F201F3010C
:100D6800F401F501F601F701F801F901AA01AB0157
:100D7800AC01AD0183132A30FD000630FE004C3073
:100D8800FF00203084000A128A115A260A128A119A
:100D980083010A128A115B2FF801F9017908803A58
:100DA800FF0083307F02031DDB2EE8307802031C2E
:100DB800DE2EDF2EE12EF52EF52E0130F807031872
:100DC800F90A0030F9077908803AFF0083307F027A
:100DD800031DF02EE8307802031CF32EF42EE12ECA
:100DE800F52E0800F601F7017708803AFF008030F9
:100DF8007F02031D012F0A307602031C042F052FE2
:100E0800072F5A2F5A2F831203139010101690167B
:100E18000B308F00DC308E0010143F2F7508FD0159
:100E2800FD077408FC01FC070A128A1167260A12DA
:100E38008A117308FD01FD077208FC01FC070A12FC
:100E48008A1179260A128A117108FD01FD077008B6
:100E5800FC01FC070A128A119D260A128A117B08D6
:100E6800FD01FD077A08FC01FC070A128A118B268E
:100E78000A128A113F2F831203130C1C442F452F8B
:100E8800122F0C100130F6070318F70A0030F70785
:100E98007708803AFF0080307F02031D552F0A3003
:100EA8007602031C582F592F072F5A2F0800831634
:100EB800031308108810081188118601FA01FB0134
:100EC8007B08803AFF0080307F02031D6D2F0630BB
:100ED8007A02031C702F712F732F622F622FF0017B
:100EE800F1017108803AFF0080307F02031D7E2FD8
:100EF8000A307002031C812F822F842FE72FE72FDF
:100F0800F201F3017308803AFF0080307F02031D6D
:100F18008F2F06307202031C922F932F952FD32FF9
:100F2800D32FF401F5017508803AFF0080307F0265
:100F3800031DA02F0A307402031CA32FA42FA62F71
:100F4800BF2FBF2F0A128A11F6260A128A11013002
:100F5800F4070318F50A0030F5077508803AFF0012
:100F680080307F02031DBA2F0A307402031CBD2F84
:100F7800BE2FA62FBF2F0130F2070318F30A003047
:100F8800F3077308803AFF0080307F02031DCE2FDD
:100F980006307202031CD12FD22F952FD32F013088
:100FA800F0070318F10A0030F1077108803AFF00D2
:100FB80080307F02031DE22F0A307002031CE52FE8
:100FC800E62F842FE72F0130FA070318FB0A0030B9
:100FD800FB077B08803AFF0080307F02031DF62F55
:100FE80006307A02031CF92FFA2F732F622F622F13
:080FF800622F0A128A11002881
:02400E007A1F17
:00000001FF
