:060000000A128A11992E7C
:100CFC00FC346034DA34F2346634B634BE34E03466
:100D0C00FE34F6347E088A007F08820088260A1298
:100D1C008A118000840A04087D0603190034FF0A36
:100D2C000319FE0A8C2EF001F101F201F301F4011A
:100D3C00F501F601F701F801F901FA01FB01AA012D
:100D4C00AB0183132A30FD000630FE007E30FF001D
:100D5C00203084000A128A118C260A128A1183010F
:100D6C000A128A115B2FFA01FB017B08803AFF0003
:100D7C0083307F02031DC42EE8307A02031CC72E79
:100D8C00C82ECA2EDE2EDE2E0130FA070318FB0AFF
:100D9C000030FB077B08803AFF0083307F02031D85
:100DAC00D92EE8307A02031CDC2EDD2ECA2EDE2E64
:100DBC000800F801F9017908803AFF0080307F02C1
:100DCC00031DEA2E0A307802031CED2EEE2EF02EB7
:100DDC005A2F5A2F831203139010101690160B30A3
:100DEC008F00DC308E0010143F2F08108810081173
:100DFC0088157408203E84008313000886000A12AC
:100E0C008A11B9260A128A1183120313081088104A
:100E1C00081588117208203E840083130008860090
:100E2C000A128A11B9260A128A11831203130810A6
:100E3C008814081188117008203E84008313000860
:100E4C00013E86000A128A11B9260A128A118312EF
:100E5C00031308148810081188117C08203E8400A4
:100E6C008313000886000A128A11B9260A128A1105
:100E7C003F2F831203130C1C442F452FFB2E0C10F9
:100E8C000130F8070318F90A0030F9077908803A9D
:100E9C00FF0080307F02031D552F0A307802031C9F
:100EAC00582F592FF02E5A2F080083160313881130
:100EBC000811881008108601FC01FD017D08803A9C
:100ECC00FF0080307F02031D6D2F06307C02031C57
:100EDC00702F712F732F622F622FF001F1017108A7
:100EEC00803AFF0080307F02031D7E2F0A30700293
:100EFC00031C812F822F842FE72FE72FF201F301A0
:100F0C007308803AFF0080307F02031D8F2F06305C
:100F1C007202031C922F932F952FD32FD32FF401F2
:100F2C00F5017508803AFF0080307F02031DA02F69
:100F3C000A307402031CA32FA42FA62FBF2FBF2F80
:100F4C000A128A11DF260A128A110130F4070318DB
:100F5C00F50A0030F5077508803AFF0080307F02F3
:100F6C00031DBA2F0A307402031CBD2FBE2FA62FEF
:100F7C00BF2F0130F2070318F30A0030F307730890
:100F8C00803AFF0080307F02031DCE2F06307202A4
:100F9C00031CD12FD22F952FD32F0130F00703181C
:100FAC00F10A0030F1077108803AFF0080307F02AF
:100FBC00031DE22F0A307002031CE52FE62F842F4D
:100FCC00E72F0130FC070318FD0A0030FD077D08F0
:100FDC00803AFF0080307F02031DF62F06307C0222
:100FEC00031CF92FFA2F732F622F622F622F0A1214
:040FFC008A1100282E
:02400E007A1F17
:00000001FF
