:08000000A001A101A201DB2F08
:100F76008301A2000714871007158800CD270711E3
:100F860008008301A2000710871007158800CD27E7
:100F96000711080083019010101690163C308F0040
:100FA600B0308E0010140C1CD62F0C101010080038
:100FB6008316031386018801870183128601383060
:100FC600C4270130C4270230C4270F30C427063097
:100FD600C4278030C427A001A1016130BB27A00A25
:100FE6000319A10A2108803AF000803070020A3005
:0A0FF60003192002031CF02FFF2F47
:02400E007A3FF7
:00000001FF
