:100000000A128A11262D00308A000408840A820709
:10001000003401340034103400340034013400342E
:10002000103420342534783420343A3420342534C4
:10003000783420343A342034253478340D3425345F
:1000400078340D342534783420343A34203425344F
:10005000783420343A342034253478340D34003464
:100060003034313432343334343435343634373454
:10007000383439346134623463346434653466341A
:0200800000344A
:100966000A128A11F3240A128A1183160313111428
:1009760008000A128A11F3240A128A118316031335
:10098600111508000A128A11F3240A128A11700836
:100996008312031393000800283083120313940074
:1009A6008316031391013130930094010800F0007F
:1009B6007008831203139900E02C0C1EE32CE42C20
:1009C600E02C0C12080083160313071387171F3039
:1009D600990098168312031398170C128C120800AC
:1009E600F52CF52C8316031311081F39031DFC2C57
:1009F600FD2CF52C1419002D012DF52C022D0800C7
:100A06007E088A007F08820003250A128A11800068
:100A1600840A04087D0603190034FF0A0319FE0A36
:100A2600072D831203139010101690163C308F007A
:100A3600B0308E0010141F2D0C1C222D232D1F2DBF
:100A46000C101010080083134C30FD000530FE001A
:100A56003830FF00383084000A128A1107250A123E
:100A66008A1183010A128A11BA2E5034493443344A
:100A7600203469346E3469347434693461346C34C6
:100A860069347A34653464342E342E342E340D347D
:100A96000034F200602D72088400831300080A12E5
:100AA6008A11DA240A128A110A128A1114250A12E4
:100AB6008A110130F1007108F2077208840083136D
:100AC6008008031D672D682D4E2D692D08000A121A
:100AD6008A11F3240A128A118316031391150A1236
:100AE6008A11F3240A128A11831203131308F200DF
:100AF600F3017208F4007308F5000A128A11F32450
:100B06000A128A117108700403198A2D8E2D831614
:100B160003139116912D831603139112111675085E
:100B2600F101F1077408F001F007992D0800F501AD
:100B3600F601710870040319A12DA22DE02DF7010D
:100B46000314F70DB22D01300310F00DF10DFF3E29
:100B5600031DA72D0130F4007408F707B22DF11F0D
:100B6600B52DB62DA62DB82DB82D01300310F50DD7
:100B7600F60DFF3E031DB92D71087302031DC52D29
:100B860070087202031CC82DC92DD12D7008F202FF
:100B96007108031CF303F3027514D12D0130031001
:100BA600F10CF00CFF3E031DD22D0130F702031DA0
:100BB600DD2DDE2DB82DE02DE02D7608F101F107B3
:100BC6007508F001F007E72D080083120313B6003D
:100BD6002130F8007808B000A02E3708253A03190E
:100BE600F52DF62D022E3708F80036088400780811
:100BF600831380000130F8007808B607A02EAF01F5
:100C0600082EB42E1A2EA02E1A2E0130A007FF3061
:100C1600200784000A128A1103200A128A11B700DB
:100C2600003A0319B42E783A03191A2EA02E30086A
:100C3600840083130008B100840A0008B200023061
:100C4600F8007808B007B7010314B70D3708043A5F
:100C5600031D2E2E2F2E312E592E592E3708F80011
:100C66007807013E84000A128A1103200A128A11AB
:100C7600F9000A128A1103200A128A11FA007A0868
:100C86003202031D482E7908310203184B2E4C2ED2
:100C96004E2E592E592E0130F8007808B70737081E
:100CA600043A031D572E582E312E592E3708F800B8
:100CB6007808B500942E3508F8007807013E8400C0
:100CC6000A128A1103200A128A11F0000A128A11E6
:100CD60003200A128A11F1003208F301F3073108E2
:100CE600F201F2070A128A119A250A128A1170086D
:100CF6000F39283E84000A128A1103200A128A112B
:100D0600F900790883120313B7003708F80036088C
:100D160084007808831380000130F8007808B6074D
:100D2600942EFF30F8007808B5073508FF3A031D02
:100D36009D2E9E2E5E2EA02EA02E0130A007FF30E7
:100D4600200784000A128A1103200A128A11F80069
:100D56007808B700B708031DB12EB22EF02DB42EB9
:100D6600B42E3608840083138001B92E080083163A
:100D76000313E201E30186010A128A11E6240A122C
:100D86008A110A128A11CF240A128A1138300A12DD
:100D96008A114C250A128A110A128A11F3240A12A0
:100DA6008A110A128A11B3240A128A11D030F0006D
:100DB6000030F1000A128A11C5240A128A11003085
:100DC600F0000030F1000A128A11C5240A128A11B5
:100DD6000A128A11BC240A128A110A128A111425CF
:100DE6000A128A110A128A11F3240A128A110A12A5
:100DF6008A11B3240A128A11D030F0000030F100B3
:100E06000A128A11C5240A128A110030F000003035
:100E1600F1000A128A11C5240A128A110A128A11CD
:100E2600BC240A128A110A128A11B3240A128A11E0
:100E3600D730F0000030F1000A128A11C5240A12D8
:100E46008A119030F0000030F1000A128A11C52490
:100E56000A128A110A128A11BC240A128A110A126B
:100E66008A11F3240A128A110A128A11B3240A1269
:100E76008A11D130F0000030F1000A128A11C5241F
:100E86000A128A1183160313E201E3016308803A0A
:100E9600FF0080307F02031D522F08306202031CC0
:100EA600552F562F582F822F822F0130F0000030F9
:100EB600F1000A128A116A250A128A11831603138F
:100EC6006208FB007B07D23E840070088313800013
:100ED600840A710880000130E2070318E30A003033
:100EE600E3076308803AFF0080307F02031D7D2FF1
:100EF60008306202031C802F812F582F822F0A127E
:100F06008A11BC240A128A110930FB007B0883125D
:100F16000313A00083160313530883120313A201BD
:100F2600A20783160313520883120313A101A10714
:100F360083160313550883120313A401A40783160B
:100F46000313540883120313A301A3078316031381
:100F5600570883120313A601A60783160313560820
:100F660083120313A501A5078316031359088312D9
:100F76000313A801A8078316031358088312031343
:100F8600A701A707831603135B0883120313AA019D
:100F9600AA07831603135A0883120313A901A90784
:100FA600831603135D0883120313AC01AC07831683
:100FB60003135C0883120313AB01AB0783160313F9
:100FC6005F0883120313AE01AE07831603135E0890
:100FD60083120313AD01AD07A0300A128A11E8256A
:100FE6000A128A11A0300A128A114C250A128A1195
:0A0FF600FC2FFC2F0A128A110028BC
:02400E007AFF37
:00000001FF
