:100000000A128A11472E00308A000408840A8207E7
:10001000003401340034103400340034013400342E
:1000200010344434613474346134203466347234AE
:100030006F346D34203473346C3461347634653409
:100040002034253478340D340034303431343234B3
:100050003334343435343634373438343934613425
:0C00600062346334643465346634003468
:100B3600F0007008831203139900A12D0C1EA42D3A
:100B4600A52DA12D0C120800F000700883120313C6
:100B56009300AD2D8C1DB02DB12DAD2D8C1113082C
:100B6600B42D08007E088A007F088200B5250A1287
:100B76008A118000840A04087D0603190034FF0ADE
:100B86000319FE0AB92D831203139010101690163E
:100B9600FA308F00DB308E001014D12D0C1CD42DB2
:100BA600D52DD12D0C10101408008316031307132E
:100BB600871798018312031398011F3083160313B6
:100BC600990098168312031398170C128C120800BA
:100BD600503449344334203469346E3469347434BF
:100BE600693461346C3469347A34653464342E344F
:100BF6002E342E340D340034831603139401123030
:100C0600831203139400831603138C1183120313A8
:100C16008C119416831603138711071687128710F3
:100C2600080049346E3469347434693461346C3480
:100C360069347A3469346E34673420346434653404
:100C460076346934633465340D340034F2003D2E55
:100C560072088400831300080A128A119B250A125F
:100C66008A110A128A11C6250A128A110130F10068
:100C76007108F2077208840083138008031D442E4E
:100C8600452E2B2E462E08008313B430FD0005306A
:100C9600FE00EB30FF00A03084000A128A11B9254D
:100CA6000A128A116330FD000630FE001430FF0080
:100CB6004E3084000A128A11B9250A128A1183015C
:100CC6000A128A11B42EF501F6017108700403198F
:100CD6006D2E6E2EAC2EF7010314F70D7E2E01300D
:100CE6000310F00DF10DFF3E031D732E0130F400CD
:100CF6007408F7077E2EF11F812E822E722E842E07
:100D0600842E01300310F50DF60DFF3E031D852ED2
:100D160071087302031D912E70087202031C942E33
:100D2600952E9D2E7008F2027108031CF303F30240
:100D360075149D2E01300310F10CF00CFF3E031DBF
:100D46009E2E0130F702031DA92EAA2E842EAC2E4C
:100D5600AC2E7608F101F1077508F001F007B32E05
:100D6600080083120313CB010A128A11D8250A122E
:100D76008A114E300A128A1129260A128A110A127B
:100D86008A11FF250A128A110A128A11C6250A1229
:100D96008A1183120313CD010A304D02031CD42E8F
:100DA600D52ED72E2B2F2B2F87104B080A128A11E0
:100DB600A7250A128A1183120313A9002908CA005B
:100DC60087140930A9002908F8004A08AA00AB01CF
:100DD6002A08F9002B08FA002C300A128A112F274C
:100DE6000A128A1183120313C9012C300A128A11BE
:100DF60029260A128A1183120313CC0178304C0279
:100E0600031C062F072F092F1B2F1B2F0A128A11CF
:100E1600C6250A128A11013083120313A900290874
:100E2600CC0778304C02031C192F1A2F092F1B2FC1
:100E36000130A9002908CB070130A9002908CD07F0
:100E46000A304D02031C282F292FD72E2B2F2B2F8C
:100E56002B2F0A128A11002883120313A700793058
:100E6600FB007B08A100E62F2808253A03193C2F32
:100E76003D2F492F2808FB00270884007B08831391
:100E860080000130FB007B08A707E62FA0014F2F4B
:100E9600FA2F612FE62F612F0130F807FF30780710
:100EA60084000A128A1103200A128A11A800003A45
:100EB6000319FA2F783A0319612FE62F21088400C7
:100EC6000008A200840A0008A3000230FB007B0889
:100ED600A107A8010314A80D2808043A031D742FBE
:100EE600752F772F9F2F9F2F2808FB007B07013E2A
:100EF60084000A128A1103200A128A11FC000A12BF
:100F06008A1103200A128A11FD007D082302031D9F
:100F16008E2F7C0822020318912F922F942F9F2F39
:100F26009F2F0130FB007B08A8072808043A031D01
:100F36009D2F9E2F772F9F2F2808FB007B08A6004A
:100F4600DA2F2608FB007B07013E84000A128A116D
:100F560003200A128A11F0000A128A1103200A12CB
:100F66008A11F1002308F301F3072208F201F207C0
:100F76000A128A1166260A128A1170080F391D3E56
:100F860084000A128A1103200A128A11FC007C08C6
:100F960083120313A8002808FB00270884007B0897
:100FA600831380000130FB007B08A707DA2FFF3090
:100FB600FB007B08A6072608FF3A031DE32FE42F54
:100FC600A42FE62FE62F0130F807FF3078078400BC
:100FD6000A128A1103200A128A11FB007B08A80054
:100FE600A808031DF72FF82F372FFA2FFA2F2708F7
:0A0FF600840083138001FF2F080020
:02400E007AFF37
:00000001FF
