:10000000203084002D300820BE2F04068001840A91
:0A0010000406031D052864000034F7
:100F320083018C1E992F8C121A0808008301AC00C1
:100F42002C0899000C1EA32F0C1208008301AB0081
:100F52002B0893008C1DAB2F8C1113080800830102
:100F62009010101690160B308F00DB308E0010148C
:100F72000C1CB92F0C1010140800CD27EE27B02737
:100F820087100030A727A000FF30A727A0009F27C7
:100F9200AA012130DD27C02F8316031307138717F9
:100FA2009801831298011F308316990098168312B4
:100FB20098170C128C1208008301AB00E72F2B0844
:100FC2008400831300089F27AB0AB0272B088400F4
:100FD20083138008031D0800E02F83160313940176
:100FE20012308312940083168C1183128C11941682
:0E0FF2008316871107168712871083120800D6
:02400E007A3FF7
:00000001FF
