:060000000A128A11902D86
:100B200083010A128A11E72DF00070088312031363
:100B300099009A2D0C1E9D2D9E2D9A2D0C120800A9
:100B4000F000831203130710871007157008860042
:100B50000A128A11C2250A128A118312031307117D
:100B60000800F0008312031307148710071570089C
:100B700086000A128A11C2250A128A1183120313EF
:100B800007110800831203139010101690163C30C2
:100B90008F00B0308E001014CD2D0C1CD02DD12D17
:100BA000CD2D0C101014080083160313071387179C
:100BB00098018312031398011F30831603139900C1
:100BC00098168312031398170C128C1208000A123D
:100BD0008A11D4250A128A11F03083160313880073
:100BE00086010710871007110713871786010F303A
:100BF00083120313880038300A128A11A0250A12C2
:100C00008A1101300A128A11A0250A128A110230B3
:100C10000A128A11A0250A128A110F300A128A11AB
:100C2000A0250A128A1106300A128A11A0250A127A
:100C30008A1180300A128A11A0250A128A11202EE8
:100C40008312031308148811081188100808113A38
:100C5000031D2B2E2C2E412E37300A128A11B1255E
:100C60000A128A1137300A128A1194250A128A113F
:100C7000392E83120313081A3E2E3F2E392E982E3A
:100C8000982E0808213A031D462E472E5C2E383038
:100C90000A128A11B1250A128A1138300A128A11F1
:100CA00094250A128A11542E83120313881A592E7E
:100CB0005A2E542E982E982E0808413A031D612E64
:100CC000622E772E39300A128A11B1250A128A1142
:100CD00039300A128A1194250A128A116F2E831252
:100CE0000313081B742E752E6F2E982E982E08084D
:100CF000813A031D7C2E7D2E922E41300A128A11DC
:100D0000B1250A128A1141300A128A1194250A1259
:100D10008A118A2E83120313881B8F2E902E8A2EFF
:100D2000982E982E071087100711982E982E982E1F
:100D300008108814081188110808123A031DA12E02
:100D4000A22EB72E34300A128A11B1250A128A1146
:100D500034300A128A1194250A128A11AF2E831296
:100D60000313081AB42EB52EAF2E0E2F0E2F08081F
:100D7000223A031DBC2EBD2ED22E35300A128A1106
:100D8000B1250A128A1135300A128A1194250A12E5
:100D90008A11CA2E83120313881ACF2ED02ECA2E80
:100DA0000E2F0E2F0808423A031DD72ED82EED2EF7
:100DB00036300A128A11B1250A128A1136300A1207
:100DC0008A1194250A128A11E52E83120313081B37
:100DD000EA2EEB2EE52E0E2F0E2F0808823A031D69
:100DE000F22EF32E082F42300A128A11B1250A1270
:100DF0008A1142300A128A1194250A128A11002F90
:100E000083120313881B052F062F002F0E2F0E2F82
:100E10000710871007110E2F0E2F0E2F08108810A5
:100E2000081588110808143A031D172F182F2D2FA5
:100E300031300A128A11B1250A128A1131300A1290
:100E40008A1194250A128A11252F83120313081A76
:100E50002A2F2B2F252F842F842F0808243A031D97
:100E6000322F332F482F32300A128A11B1250A123D
:100E70008A1132300A128A1194250A128A11402FDF
:100E800083120313881A452F462F402F842F842F57
:100E90000808443A031D4D2F4E2F632F33300A129A
:100EA0008A11B1250A128A1133300A128A11942547
:100EB0000A128A115B2F83120313081B602F612F04
:100EC0005B2F842F842F0808843A031D682F692F15
:100ED0007E2F43300A128A11B1250A128A1143303B
:100EE0000A128A1194250A128A11762F831203138B
:100EF000881B7B2F7C2F762F842F842F0710871041
:100F00000711842F842F842F08108810081188154A
:100F10000808183A031D8D2F8E2FA32F2F300A1289
:100F20008A11B1250A128A112F300A128A119425CA
:100F30000A128A119B2F83120313081AA02FA12FC4
:100F40009B2F202E202E0808283A031DA82FA92FFA
:100F5000BE2F30300A128A11B1250A128A113030A0
:100F60000A128A1194250A128A11B62F83120313CA
:100F7000881ABB2FBC2FB62F202E202E0808483AE7
:100F8000031DC32FC42FD92F3D300A128A11B1255A
:100F90000A128A113D300A128A1194250A128A1106
:100FA000D12F83120313081BD62FD72FD12F202E1A
:100FB000202E0808883A031DDE2FDF2FF42F44303F
:100FC0000A128A11B1250A128A1144300A128A11B2
:100FD00094250A128A11EC2F83120313881BF12F18
:100FE000F22FEC2F202E202E071087100711202E15
:100FF000202E202E202E202E202E0A128A1100288C
:02400E007AFF37
:00000001FF
