:060000000A128A11122809
:10000800FE00030EF0000408F1000A08F200831253
:1000180003137F08F3000A128A11312B0A128A117E
:10002800F42A00308A000408840A82070034013464
:1000380000341034003400340134003410342534D2
:10004800783420343A3420342534783420343A341F
:100058002034253478340D34253478340D3425345F
:10006800783420343A3420342534783420343A34FF
:100078002034253478340D3400343034313432347B
:1000880033343434353436343734383439346134ED
:100098006234633464346534663400348312031381
:1000A800BC002430B2003208B6000A293D08253ABF
:1000B80003195F2860286C283D08B2003C088400BA
:1000C8003208831380000130B2003208BC070A29C5
:1000D800B50172281E2984280A2984280130A3071B
:1000E800FF30230784000A128A1115200A128A1188
:1000F800BD00003A03191E29783A031984280A29F1
:100108003608840083130008B700840A0008B80082
:100118000230B2003208B607BD010314BD0D3D0818
:10012800043A031D982899289B28C328C3283D080A
:10013800B2003207013E84000A128A1115200A1201
:100148008A11B3000A128A1115200A128A11B40002
:1001580034083802031DB228330837020318B528BB
:10016800B628B828C328C3280130B2003208BD0712
:100178003D08043A031DC128C2289B28C3283D080E
:10018800B2003208BB00FE283B08B2003207013E2D
:1001980084000A128A1115200A128A11F4000A1220
:1001A8008A1115200A128A11F5003808F701F70795
:1001B8003708F601F6070A128A1142220A128A1132
:1001C80074080F39273E84000A128A1115200A1272
:1001D8008A1183120313B3003308BD003D08B2002F
:1001E8003C0884003208831380000130B2003208D2
:1001F800BC07FE28FF30B2003208BB073B08FF3AB5
:10020800031D07290829C8280A290A290130A30734
:10021800FF30230784000A128A1115200A128A1156
:10022800B2003208BD00BD08031D1B291C295A282D
:100238001E291E293C0884008313800123290800F5
:100248000A128A116D230A128A110A128A11B4231A
:100258000A128A11D030F4000030F5000A128A110F
:10026800A1230A128A110030F4000030F5000A12A6
:100278008A11A1230A128A110A128A11AB230A12BF
:100288008A110A128A116D230A128A110A128A1116
:10029800B4230A128A11D130F4000030F5000A1292
:1002A8008A11A1230A128A1183120313D101D201E0
:1002B8005208803AFF0080307F02031D652908300C
:1002C8005102031C682969296B2995299529013050
:1002D800F4000030F5000A128A11C4220A128A11A9
:1002E800831203135108BE003E073F3E8400740882
:1002F80083138000840A750880000130D107031831
:10030800D20A0030D2075208803AFF0080307F02BC
:10031800031D902908305102031C932994296B2945
:1003280095290A128A11AB230A128A1109308312FD
:100338000313BE003E08A3004408A501A50743080F
:10034800A401A4074208A701A7074108A601A60718
:100358004008A901A9073F08A801A8074608AB015A
:10036800AB074508AA01AA074808AD01AD07470829
:10037800AC01AC074A08AF01AF074908AE01AE07A8
:100388004C08B101B1074B08B001B007A0300A1200
:100398008A1152200A128A11A0300A128A111723D0
:1003A8000A128A1108008316031306140710810124
:1003B8008B170B170B160A128A117D230A128A1142
:1003C8000A128A1196230A128A110A128A114A23DA
:1003D8000A128A110A128A116D230A128A110A1244
:1003E8008A11B4230A128A11D030F4000030F500C3
:1003F8000A128A11A1230A128A110730F400003068
:10040800F5000A128A11A1230A128A111030F40089
:100418000030F5000A128A11A1230A128A110A1261
:100428008A11AB230A128A11192A01308312031385
:1004380053065404031D212A222A2C2A0A128A113F
:1004480024210A128A1183120313D301D4012F2AFB
:10045800D301D4012F2A0130CF000030D000352A33
:10046800352A01304F06500403193B2A3C2A352A05
:10047800192A192A192A0A128A111228831203130F
:10048800A001A1017508740403194B2A4C2A8A2A71
:10049800A2010314A20D5C2A01300310F40DF50D1E
:1004A800FF3E031D512A0130F8007808A2075C2A94
:1004B800F51F5F2A602A502A622A622A0130031037
:1004C800A00DA10DFF3E031D632A75087702031DC9
:1004D8006F2A74087602031C722A732A7B2A74080E
:1004E800F6027508031CF703F70220147B2A013073
:1004F8000310F50CF40CFF3E031D7C2A0130A20208
:10050800031D872A882A622A8A2A8A2A2108F5014D
:10051800F5072008F401F407912A080046346934E5
:10052800723473347434203443346F346E34743416
:1005380072346F346C346C346534723420346934FA
:100548007334203477346F3472346B3469346E34D6
:1005580067340D340034003400340034003400347F
:1005680000340034003400340034003400340034E3
:1005780000340034003400340034003400340034D3
:100588000A128A116D230A128A1183160313911510
:100598000A128A116D230A128A118312031313088F
:1005A800F600F7017608F8007708F9000A128A11B0
:1005B8006D230A128A11750874040319E42AE82ABB
:1005C800831603139116EB2A83160313911211163F
:1005D8007908F501F5077808F401F407F32A08000B
:1005E80083133F30840055300A128A11BD230A1242
:1005F8008A11A0308400D2300A128A11BD230A124F
:100608008A118317C230FD000230FE009230FF00CD
:10061800903084000A128A1160230A128A11830119
:100628000A128A11D729F600272B7608840083132B
:1006380000080A128A118A230A128A110130F50069
:100648007508F607272B7608840083138008031D96
:100658002E2B2F2B192B302B08008B1C342B352BD2
:100668003D2B0130D3000030D4000714CF01D00156
:100678003D2B8B1007107308FF0072088A00710861
:100688008400700E8300FE0E7E0E09008312031391
:100698009010101690163C308F00B0308E00101459
:1006A800552B0C1C582B592B552B0C1010100800CF
:1006B8007E088A007F0882005C230A128A11800063
:1006C800840A04087D0603190034FF0A0319FE0A88
:1006D800602B6F2B6F2B8316031311081F39031D13
:1006E800762B772B6F2B14197A2B7B2B6F2B7C2B6C
:1006F800080083160313071387171F3099009816ED
:100708008312031398170C128C120800F400740853
:10071800831203139900902B0C1E932B942B902B70
:100728000C12080028308312031394008316031355
:10073800910131309300940108000A128A116D2347
:100748000A128A11740883120313930008000A120C
:100758008A116D230A128A118316031311150800D2
:100768000A128A116D230A128A11831603131114AF
:10077800080064008001840A040603190034040692
:02078800BE2B86
:02400E007AFF37
:00000001FF
