:100000000A128A11A22D00308A000408840A82078D
:10001000003401340034103400340034013400342E
:1000200010343034313432343334343435343634BB
:100030003734383439346134623463346434653489
:0E004000663400342534783420340D34003416
:1009C80064008001840A0406031900340406E52C37
:1009D8000A128A112C250A128A118316031311147C
:1009E80008000A128A112C250A128A118316031389
:1009F800111508000A128A112C250A128A1170088A
:100A08008312031393000800283083120313940001
:100A18008316031391013130930094010800F0000C
:100A28007008831203139900192D0C1E1C2D1D2DFF
:100A3800192D0C12080083160313071387171F308C
:100A4800990098168312031398170C128C12080039
:100A58002E2D2E2D8316031311081F39031D352D36
:100A6800362D2E2D1419392D3A2D2E2D3B2D0800FB
:100A78007E088A007F0882003C250A128A118000BD
:100A8800840A04087D0603190034FF0A0319FE0AC4
:100A9800402D831203139010101690163C308F00CF
:100AA800B0308E001014582D0C1C5B2D5C2D582D69
:100AB8000C10101008005034493443342034693481
:100AC8006E3469347434693461346C3469347A341A
:100AD800653464342E342E342E340D3400348316A9
:100AE800031308100A128A111F250A128A110A1202
:100AF8008A1108250A128A110A128A1113270A1262
:100B08008A110A128A110028F200982D72088400AE
:100B1800831300080A128A1113250A128A11013058
:100B2800F1007108F207982D720884008313800879
:100B3800031D9F2DA02D8A2DA12D08008313203081
:100B4800840036300A128A11E4240A128A11A0306D
:100B58008400D2300A128A11E4240A128A114A3017
:100B6800FD000530FE005F30FF00363084000A12B9
:100B78008A1140250A128A1183010A128A11732DDB
:100B88000A128A112C250A128A1183160313911549
:100B98000A128A112C250A128A11831203131308C8
:100BA800F200F3017208F4007308F5000A128A11C2
:100BB8002C250A128A11710870040319E42DE82DF6
:100BC800831603139116EB2D831603139112111636
:100BD8007508F101F1077408F001F007F32D08001A
:100BE800F501F601710870040319FB2DFC2D3A2E4E
:100BF800F7010314F70D0C2E01300310F00DF10D61
:100C0800FF3E031D012E0130F4007408F7070C2E77
:100C1800F11F0F2E102E002E122E122E013003104F
:100C2800F50DF60DFF3E031D132E71087302031D0B
:100C38001F2E70087202031C222E232E2B2E7008E2
:100C4800F2027108031CF303F30275142B2E013012
:100C58000310F10CF00CFF3E031D2C2E0130F7029F
:100C6800031D372E382E122E3A2E3A2E7608F10111
:100C7800F1077508F001F007412E080083120313ED
:100C8800D1007930FB007B08CB00F92E5208253AB9
:100C980003194F2E502E5C2E5208FB005108840079
:100CA8007B08831380000130FB007B08D107F92EF5
:100CB800CA01622E0D2F742EF92E742E0130F807FA
:100CC800FF30780784000A128A1103200A128A1159
:100CD800D200003A03190D2F783A0319742EF92E11
:100CE8004B0884000008CC00840A0008CD000230BC
:100CF800FB007B08CB07D2010314D20D5208043A3B
:100D0800031D872E882E8A2EB22EB22E5208FB0083
:100D18007B07013E84000A128A1103200A128A11F5
:100D2800FC000A128A1103200A128A11FD007D08AC
:100D38004D02031DA12E7C084C020318A42EA52EDB
:100D4800A72EB22EB22E0130FB007B08D207520824
:100D5800043A031DB02EB12E8A2EB22E5208FB0083
:100D68007B08D000ED2E5008FB007B07013E840075
:100D78000A128A1103200A128A11F0000A128A1133
:100D880003200A128A11F1004D08F301F3074C08F9
:100D9800F201F2070A128A11F4250A128A11700860
:100DA8000F39093E84000A128A1103200A128A1197
:100DB800FC007C0883120313D2005208FB00510880
:100DC80084007B08831380000130FB007B08D10777
:100DD800ED2EFF30FB007B08D0075008FF3A031DBB
:100DE800F62EF72EB72EF92EF92E0130F807FF3020
:100DF800780784000A128A1103200A128A11FB005C
:100E08007B08D200D208031D0A2F0B2F4A2E0D2F64
:100E18000D2F5108840083138001122F08000A1235
:100E28008A112C250A128A110A128A11EC240A1234
:100E38008A11D030F0000030F1000A128A11FE2425
:100E48000A128A110030F0000030F1000A128A11EB
:100E5800FE240A128A110A128A11F5240A128A112A
:100E68000A128A114D250A128A110A128A112C2592
:100E78000A128A110A128A11EC240A128A11D03035
:100E8800F0000030F1000A128A11FE240A128A11B9
:100E98000030F0000030F1000A128A11FE240A1214
:100EA8008A110A128A11F5240A128A110A128A1161
:100EB800EC240A128A11D730F0000030F1000A122F
:100EC8008A11FE240A128A119030F0000030F100D5
:100ED8000A128A11FE240A128A110A128A11F524AA
:100EE8000A128A110A128A112C250A128A110A1268
:100EF8008A11EC240A128A11D130F0000030F10076
:100F08000A128A11FE240A128A1183120313B001ED
:100F1800B1013108803AFF0080307F02031D962F0F
:100F280002303002031C992F9A2F9C2FC62FC62FF0
:100F38000130F0000030F1000A128A11C4250A12AB
:100F48008A11831203133008D3005307203E84000C
:100F5800700883138000840A710880000130B0078C
:100F68000318B10A0030B1073108803AFF00803019
:100F78007F02031DC12F02303002031CC42FC52F6E
:100F88009C2FC62F831203132108B301B30720082F
:100F9800B201B2070A128A11F5240A128A118312C1
:100FA800031333083506031DDB2F320834060319F3
:100FB800DE2FDF2FFF2F3308B501B5073208B40144
:100FC800B4071A30D3005308F8003508FA01FA07B5
:100FD8003408F901F907A0300A128A1142260A12C8
:100FE8008A11831203130814A0300A128A11882563
:080FF8000A128A11FF2F080004
:02400E007AFF37
:00000001FF
