:060000000A128A11012E14
:100C020083010A128A11052EF0308316031388001D
:100C1200870186108312031386140B100F3088008D
:100C2200122E0814881108118810081E192E1A2E67
:100C3200332E081C1D2E1E2E332E8818212E222EF6
:100C4200332E0819252E262E332E8819292E2A2EC8
:100C5200332EE03087002D2E081A302E312E2D2E05
:100C62008C2E8C2E881E362E372E502E081C3A2E95
:100C72003B2E502E88183E2E3F2E502E0819422E03
:100C8200432E502E8819462E472E502EFE308700B6
:100C92004A2E881A4D2E4E2E4A2E8C2E8C2E081F2E
:100CA200532E542E6D2E081C572E582E6D2E88183A
:100CB2005B2E5C2E6D2E08195F2E602E6D2E88190C
:100CC200632E642E6D2EF6308700672E081B6A2E67
:100CD2006B2E672E8C2E8C2E881F702E712E8C2ED2
:100CE200081C742E752E8C2E8818782E792E8C2E38
:100CF20008197C2E7D2E8C2E8819802E812E8C2E0A
:100D0200EE308700842E881B872E882E842E8C2E10
:100D12008C2E8C2E8C2E0810881408118811081E17
:100D2200932E942EAD2E881C972E982EAD2E081839
:100D32009B2E9C2EAD2E08199F2EA02EAD2E88190B
:100D4200A32EA42EAD2E66308700A72E081AAA2E37
:100D5200AB2EA72E062F062F881EB02EB12ECA2E1E
:100D6200881CB42EB52ECA2E0818B82EB92ECA2E3B
:100D72000819BC2EBD2ECA2E8819C02EC12ECA2E0D
:100D8200B6308700C42E881AC72EC82EC42E062F4E
:100D9200062F081FCD2ECE2EE72E881CD12ED22E46
:100DA200E72E0818D52ED62EE72E0819D92EDA2EC0
:100DB200E72E8819DD2EDE2EE72EBE308700E12ECB
:100DC200081BE42EE52EE12E062F062F881FEA2EA1
:100DD200EB2E062F881CEE2EEF2E062F0818F22E71
:100DE200F32E062F0819F62EF72E062F8819FA2E43
:100DF200FB2E062F3E308700FE2E881B012F022F6E
:100E0200FE2E062F062F062F062F08108810081513
:100E12008811081E0D2F0E2F272F081D112F122F9C
:100E2200272F8818152F162F272F0818192F1A2F3A
:100E3200272F88191D2F1E2F272F60308700212F63
:100E4200081A242F252F212F802F802F881E2A2F2A
:100E52002B2F442F081D2E2F2F2F442F8818322F6F
:100E6200332F442F0818362F372F442F88193A2F43
:100E72003B2F442FDA3087003E2F881A412F422F12
:100E82003E2F802F802F081F472F482F612F081DCC
:100E92004B2F4C2F612F88184F2F502F612F08187E
:100EA200532F542F612F8819572F582F612FF2304B
:100EB20087005B2F081B5E2F5F2F5B2F802F802FF9
:100EC200881F642F652F802F081D682F692F802FA0
:100ED20088186C2F6D2F802F0818702F712F802F7C
:100EE2008819742F752F802F1A308700782F881B4E
:100EF2007B2F7C2F782F802F802F802F802F081020
:100F0200881008118815081E872F882FA12F881D89
:100F12008B2F8C2FA12F88188F2F902FA12F08197C
:100F2200932F942FA12F0818972F982FA12F0230BB
:100F320087009B2F081A9E2F9F2F9B2F122E122E57
:100F4200881EA42FA52FBE2F881DA82FA92FBE2F24
:100F52008818AC2FAD2FBE2F0819B02FB12FBE2F7E
:100F62000818B42FB52FBE2FFC308700B82F881A6F
:100F7200BB2FBC2FB82F122E122E081FC12FC22F2B
:100F8200DB2F881DC52FC62FDB2F8818C92FCA2F2C
:100F9200DB2F0819CD2FCE2FDB2F0818D12FD22F00
:100FA200DB2F02308700D52F081BD82FD92FD52F42
:100FB200122E122E881FDE2FDF2F122E881DE22FF7
:100FC200E32F122E8818E62FE72F122E0819EA2F88
:100FD200EB2F122E0818EE2FEF2F122E7A308700E9
:100FE200F22F881BF52FF62FF22F122E122E122E11
:0E0FF200122E122E122E122E0A128A11002812
:02400E007A1F17
:00000001FF
