:060000000A128A11292EEC
:100C520083010A128A11612EF00083120313061215
:100C620086100615700887000A128A114F260A128A
:100C72008A118312031306110800F0008312031372
:100C8200061686100615700887000A128A114F266A
:100C92000A128A1183120313061108008312031326
:100CA2009010101690163C308F00B0308E00101449
:100CB2005A2E0C1C5D2E5E2E5A2E0C10101408009B
:100CC200F030831603138800870186010F308312E8
:100CD2000313880038300A128A112D260A128A114B
:100CE20001300A128A112D260A128A1102300A12C2
:100CF2008A112D260A128A110F300A128A112D2604
:100D02000A128A1106300A128A112D260A128A1133
:100D120080300A128A112D260A128A11902E83120D
:100D2200031308148811081188100808113A031DCA
:100D32009B2E9C2EAB2E37300A128A113E260A12A7
:100D42008A11A32E83120313081AA82EA92EA32EEA
:100D5200EC2EEC2E0808213A031DB02EB12EC02E27
:100D620038300A128A113E260A128A11B82E8312CC
:100D72000313881ABD2EBE2EB82EEC2EEC2E0808B8
:100D8200413A031DC52EC62ED52E39300A128A11BC
:100D92003E260A128A11CD2E83120313081BD22E6D
:100DA200D32ECD2EEC2EEC2E0808813A031DDA2E1E
:100DB200DB2EEC2E41300A128A113E260A128A11CB
:100DC200E22E83120313881BE72EE82EE22EEC2E6E
:100DD200EC2EEC2EEC2E081088140811881108084D
:100DE200123A031DF52EF62E052F34300A128A11FF
:100DF2003E260A128A11FD2E83120313081A022FAD
:100E0200032FFD2E462F462F0808223A031D0A2FD4
:100E12000B2F1A2F35300A128A113E260A128A1116
:100E2200122F83120313881A172F182F122F462FEF
:100E3200462F0808423A031D1F2F202F2F2F36302E
:100E42000A128A113E260A128A11272F83120313CD
:100E5200081B2C2F2D2F272F462F462F0808823AAA
:100E6200031D342F352F462F42300A128A113E2697
:100E72000A128A113C2F83120313881B412F422F1F
:100E82003C2F462F462F462F462F08108810081554
:100E920088110808143A031D4F2F502F5F2F31304D
:100EA2000A128A113E260A128A11572F831203133D
:100EB200081A5C2F5D2F572FA02FA02F0808243A65
:100EC200031D642F652F742F32300A128A113E26B9
:100ED2000A128A116C2F83120313881A712F722F30
:100EE2006C2FA02FA02F0808443A031D792F7A2FC8
:100EF200892F33300A128A113E260A128A11812F53
:100F020083120313081B862F872F812FA02FA02F58
:100F12000808843A031D8E2F8F2FA02F43300A1208
:100F22008A113E260A128A11962F83120313881BF6
:100F32009B2F9C2F962FA02FA02FA02FA02F081001
:100F42008810081188150808183A031DA92FAA2F1E
:100F5200B92F2D300A128A113E260A128A11B12F98
:100F620083120313081AB62FB72FB12F902E902E8B
:100F72000808283A031DBE2FBF2FCE2F30300A1289
:100F82008A113E260A128A11C62F83120313881A67
:100F9200CB2FCC2FC62F902E902E0808483A031D37
:100FA200D32FD42FE32F2D300A128A113E260A1294
:100FB2008A11DB2F83120313081BE02FE12FDB2F93
:100FC200902E902E0808883A031DE82FE92F902EC4
:100FD20044300A128A113E260A128A11F02F831215
:100FE2000313881BF52FF62FF02F902E902E902EA4
:0E0FF200902E902E902E902E0A128A1100281A
:02400E007AFF37
:00000001FF
