:060000000A128A11472ECE
:100C8E0083010A128A11EA2E4130831203139F0048
:100C9E00C030831603139F000800F0008312031365
:100CAE00071087100715700888000A128A11762619
:100CBE000A128A118312031307110800F00083121F
:100CCE000313071487100715700888000A128A117B
:100CDE0076260A128A118312031307110800831253
:100CEE0003139010101690163C308F00B0308E000B
:100CFE001014812E0C1C842E852E812E0C10101497
:100D0E000800F401F5018B2E701C8E2E8F2E952E61
:100D1E007208F4070318F50A7308F507013003107B
:100D2E00F20DF30DFF3E031D962E01300310F10C54
:100D3E00F00CFF3E031D9D2E71087004031DA82E9E
:100D4E00A92E8B2EAA2E7508F101F1077408F00159
:100D5E00F007B12E0800F400C530F20072088312BD
:100D6E0003139F057408F20002300310F20DFF3ECC
:100D7E00031DBC2E0310720DF30073089F040D307B
:100D8E00F300FB30F200F20BCA2EF30BCA2ECF2E5D
:100D9E00831203131F15D32E1F19D62ED72ED32E23
:100DAE00D82E1E08F200F3017208F300F20183162A
:100DBE0003131E087207F00000300318013073078A
:100DCE00F100E92E0800831603138801870106142B
:100DDE0038300A128A1154260A128A1101300A1268
:100DEE008A1154260A128A1102300A128A115426C6
:100DFE000A128A110F300A128A1154260A128A1107
:100E0E0006300A128A1154260A128A1180300A12EA
:100E1E008A1154260A128A110A128A114B260A12B4
:100E2E008A11192F00300A128A11B2260A128A115B
:100E3E007108FC01FC077008FB01FB077C08F1013F
:100E4E00F1077B08F001F0076430F2000030F30088
:100E5E000A128A1188260A128A117008F600710881
:100E6E00F7000A300310F70CF60CFF3E031D392F66
:100E7E007608FB007708FC007C087B04031D482FD6
:100E8E00492F502F30300A128A1165260A128A1104
:100E9E00502F00307C02023003197B02031C582FA6
:100EAE00592F692F00307C020A3003197B02031878
:100EBE00612F622F692F31300A128A1165260A12AC
:100ECE008A11692F00307C020B3003197B02031C40
:100EDE00712F722F822F00307C02143003197B0287
:100EEE0003187A2F7B2F822F32300A128A11652631
:100EFE000A128A11822F00307C02153003197B02F0
:100F0E00031C8A2F8B2F9B2F00307C021E3003195F
:100F1E007B020318932F942F9B2F33300A128A11C2
:100F2E0065260A128A119B2F00307C021F3003198E
:100F3E007B02031CA32FA42FB42F00307C02283079
:100F4E0003197B020318AC2FAD2FB42F34300A12C5
:100F5E008A1165260A128A11B42F00307C023330B2
:100F6E0003197B02031CBC2FBD2FC42F35300A1270
:100F7E008A1165260A128A11C42FF901FA017A081C
:100F8E00803AFF0080307F02031DCF2F143079028C
:100F9E00031CD22FD32FD52FF52FF52F0330F800AA
:100FAE008830F7005630F600F60BDB2FF70BDB2FF1
:100FBE00F80BDB2F0130F9070318FA0A0030FA0795
:100FCE007A08803AFF0080307F02031DF02F143024
:100FDE007902031CF32FF42FD52FF52F01300A12AF
:100FEE008A1154260A128A11192F192F0A128A11E0
:020FFE000028C9
:02400E007AFF37
:00000001FF
